:107800000C94403C0C945D3C0C945D3C0C945D3CB1
:107810000C945D3C0C945D3C0C945D3C0C945D3C84
:107820000C945D3C0C945D3C0C945D3C0C945D3C74
:107830000C945D3C0C945D3C0C945D3C0C945D3C64
:107840000C945D3C0C945D3C0C945D3C0C945D3C54
:107850000C945D3C0C945D3C0C945D3C0C945D3C44
:107860000C945D3C0C945D3C0D0A7777772E65692E
:10787000742E73652F6861626C2F312E390D0A00EA
:1078800011241FBECFEFD8E0DEBFCDBF11E0A0E0D6
:10789000B1E0EAE3FCE702C005900D92A230B10727
:1078A000D9F722E0A2E0B1E001C01D92AE30B207EC
:1078B000E1F70E94A63D0C941B3E0C94003CE0ECCA
:1078C000F0E08081826080831092C50087E0809321
:1078D000C40088E18093C1008EE08093C200589A72
:1078E00008959091C00095FD02C0A895FACF8093AD
:1078F000C60008958091C00087FD04C0A8958FEF51
:107900009FEF08958091C60090E00895CF93DF9394
:10791000FC018491EF012196882321F00E94713CA3
:10792000FE01F7CFDF91CF910895CF92DF92EF92D2
:10793000FF9280E4C82E82E4D82E8FE0E82EF12C4E
:107940000E947A3C97FF08C081E0C81AD108E1087C
:10795000F108B1F78FEF9FEFFF90EF90DF90CF909E
:107960000895A0E0B0E0E7EBFCE30C94EE3D0E944C
:10797000953C019721F083E40E94713CF8CF03E02D
:1079800011E1FF24F39485E0E82EC0900001D12C92
:107990000E94953C9927C816D90609F0BAC00E94E2
:1079A000953C8095909100018913B3C01092090114
:1079B000109208010E94953C90930D0280930C0256
:1079C00097FDA7C02091080130910901F901E45702
:1079D000FE4F8083C90101969093090180930801AD
:1079E0008038910539F70E94953CD82F80E0C82F48
:1079F0000E94953CBC016C0F7D1FECE8F1E020E09B
:107A000030E0B2E0EC30FB0791F08191382798E04C
:107A1000A901440F551F37FF06C09A01A1E22A278A
:107A2000A0E13A2701C09A01915091F7EACF62177D
:107A3000730709F06EC02CE831E080910401909149
:107A40000501FC01E65FFE4FD9014D919D01408388
:107A5000019690930501809304018038910508F404
:107A600048C040910601509107014138B7E75B07D4
:107A700008F059C0FA0100935700E89507B606FED2
:107A800004C010935700E895F9CFAAE0B1E080E078
:107A900090E0FC01E40FF51F8038910599F0EF7735
:107AA000FF2711966C91119770E0762F6627DC9076
:107AB0006D0D711D0B01F0925700E895112402968F
:107AC0001296E7CFF0930701E093060190938B01A4
:107AD00080938A013197E0925700E89507B606FE39
:107AE00004C010935700E895F9CF10920501109249
:107AF0000401F2E02C303F0709F09FCF86E014C06C
:107B00000497D1F00E94953C97FFFCCF85E10E943D
:107B1000713C0E94953C90930D0280930C02813041
:107B2000910571F732CF85E10E94713C809100018F
:107B30008F5F80930001EDCF86E00E94713C80E072
:107B400090E0CDB7DEB7E8E00C940A3ECF92DF922A
:107B5000EF92FF92CF930E945F3C9FE088E10FB6C7
:107B6000F894A895809360000FBE9093600088E61B
:107B700098E70E94863C80E9C82E85E0D82E80E1F7
:107B8000E82EF12CC0E00E947A3C8B31910511F473
:107B9000CF5F03C01816190654F081E0C81AD10847
:107BA000E108F10881F7C53011F40E94B13CE09181
:107BB0000201F0910301099580E090E0CF91FF90E0
:107BC000EF90DF90CF9008952F923F924F925F9267
:107BD0006F927F928F929F92AF92BF92CF92DF92DD
:107BE000EF92FF920F931F93CF93DF93CDB7DEB742
:107BF000CA1BDB0B0FB6F894DEBF0FBECDBF0994D6
:107C00002A88398848885F846E847D848C849B842C
:107C1000AA84B984C884DF80EE80FD800C811B813A
:107C2000AA81B981CE0FD11D0FB6F894DEBF0FBE69
:0A7C3000CDBFED010895F894FFCFD9
:027C3A00010047
:040000030000780081
:00000001FF
